{
  "contractName": "CoinFlip",
  "abi": [
    {
      "inputs": [],
      "payable": true,
      "stateMutability": "payable",
      "type": "constructor"
    },
    {
      "anonymous": false,
      "inputs": [
        {
          "indexed": false,
          "internalType": "address",
          "name": "caller",
          "type": "address"
        },
        {
          "indexed": false,
          "internalType": "uint256",
          "name": "amount",
          "type": "uint256"
        },
        {
          "indexed": false,
          "internalType": "bool",
          "name": "won",
          "type": "bool"
        }
      ],
      "name": "BettingResult",
      "type": "event"
    },
    {
      "anonymous": false,
      "inputs": [
        {
          "indexed": false,
          "internalType": "uint256",
          "name": "userBalance",
          "type": "uint256"
        }
      ],
      "name": "Deposit",
      "type": "event"
    },
    {
      "anonymous": false,
      "inputs": [
        {
          "indexed": false,
          "internalType": "uint256",
          "name": "userBalance",
          "type": "uint256"
        }
      ],
      "name": "Withdrawal",
      "type": "event"
    },
    {
      "constant": true,
      "inputs": [],
      "name": "balance",
      "outputs": [
        {
          "internalType": "uint256",
          "name": "",
          "type": "uint256"
        }
      ],
      "payable": false,
      "stateMutability": "view",
      "type": "function"
    },
    {
      "constant": true,
      "inputs": [
        {
          "internalType": "address",
          "name": "",
          "type": "address"
        }
      ],
      "name": "lastFlip",
      "outputs": [
        {
          "internalType": "bool",
          "name": "",
          "type": "bool"
        }
      ],
      "payable": false,
      "stateMutability": "view",
      "type": "function"
    },
    {
      "constant": true,
      "inputs": [],
      "name": "owner",
      "outputs": [
        {
          "internalType": "address",
          "name": "",
          "type": "address"
        }
      ],
      "payable": false,
      "stateMutability": "view",
      "type": "function"
    },
    {
      "constant": true,
      "inputs": [
        {
          "internalType": "address",
          "name": "",
          "type": "address"
        }
      ],
      "name": "userBalance",
      "outputs": [
        {
          "internalType": "uint256",
          "name": "",
          "type": "uint256"
        }
      ],
      "payable": false,
      "stateMutability": "view",
      "type": "function"
    },
    {
      "constant": false,
      "inputs": [],
      "name": "addBalance",
      "outputs": [
        {
          "internalType": "uint256",
          "name": "",
          "type": "uint256"
        }
      ],
      "payable": true,
      "stateMutability": "payable",
      "type": "function"
    },
    {
      "constant": false,
      "inputs": [],
      "name": "withdrawBalance",
      "outputs": [
        {
          "internalType": "uint256",
          "name": "",
          "type": "uint256"
        }
      ],
      "payable": false,
      "stateMutability": "nonpayable",
      "type": "function"
    },
    {
      "constant": true,
      "inputs": [],
      "name": "minBet",
      "outputs": [
        {
          "internalType": "uint256",
          "name": "",
          "type": "uint256"
        }
      ],
      "payable": false,
      "stateMutability": "pure",
      "type": "function"
    },
    {
      "constant": true,
      "inputs": [],
      "name": "maxBet",
      "outputs": [
        {
          "internalType": "uint256",
          "name": "",
          "type": "uint256"
        }
      ],
      "payable": false,
      "stateMutability": "view",
      "type": "function"
    },
    {
      "constant": false,
      "inputs": [
        {
          "internalType": "uint256",
          "name": "betType",
          "type": "uint256"
        }
      ],
      "name": "bet",
      "outputs": [
        {
          "internalType": "bool",
          "name": "",
          "type": "bool"
        }
      ],
      "payable": true,
      "stateMutability": "payable",
      "type": "function"
    },
    {
      "constant": true,
      "inputs": [],
      "name": "getBalance",
      "outputs": [
        {
          "internalType": "uint256",
          "name": "",
          "type": "uint256"
        }
      ],
      "payable": false,
      "stateMutability": "view",
      "type": "function"
    },
    {
      "constant": true,
      "inputs": [
        {
          "internalType": "address",
          "name": "user1",
          "type": "address"
        }
      ],
      "name": "getUserBalance",
      "outputs": [
        {
          "internalType": "uint256",
          "name": "",
          "type": "uint256"
        }
      ],
      "payable": false,
      "stateMutability": "view",
      "type": "function"
    },
    {
      "constant": false,
      "inputs": [],
      "name": "withdrawAll",
      "outputs": [
        {
          "internalType": "uint256",
          "name": "",
          "type": "uint256"
        }
      ],
      "payable": false,
      "stateMutability": "nonpayable",
      "type": "function"
    },
    {
      "constant": false,
      "inputs": [],
      "name": "fund",
      "outputs": [
        {
          "internalType": "uint256",
          "name": "",
          "type": "uint256"
        }
      ],
      "payable": true,
      "stateMutability": "payable",
      "type": "function"
    },
    {
      "constant": false,
      "inputs": [],
      "name": "close",
      "outputs": [],
      "payable": false,
      "stateMutability": "nonpayable",
      "type": "function"
    }
  ],
  "bytecode": "0x6080604052336000806101000a81548173ffffffffffffffffffffffffffffffffffffffff021916908373ffffffffffffffffffffffffffffffffffffffff160217905550336000806101000a81548173ffffffffffffffffffffffffffffffffffffffff021916908373ffffffffffffffffffffffffffffffffffffffff160217905550610e4a806100936000396000f3fe6080604052600436106100dd5760003560e01c80637365870b1161007f5780639619367d116100595780639619367d14610375578063b163cc38146103a0578063b60d4288146103be578063b69ef8a8146103dc576100dd565b80637365870b146102ad578063853828b6146102f35780638da5cb5b1461031e576100dd565b806336335173116100bb578063363351731461019d57806343d726d614610206578063477348921461021d5780635fd8c71014610282576100dd565b80630103c92b146100e257806312065fe0146101475780632e5b216814610172575b600080fd5b3480156100ee57600080fd5b506101316004803603602081101561010557600080fd5b81019080803573ffffffffffffffffffffffffffffffffffffffff169060200190929190505050610407565b6040518082815260200191505060405180910390f35b34801561015357600080fd5b5061015c61041f565b6040518082815260200191505060405180910390f35b34801561017e57600080fd5b50610187610429565b6040518082815260200191505060405180910390f35b3480156101a957600080fd5b506101ec600480360360208110156101c057600080fd5b81019080803573ffffffffffffffffffffffffffffffffffffffff16906020019092919050505061043d565b604051808215151515815260200191505060405180910390f35b34801561021257600080fd5b5061021b61045d565b005b34801561022957600080fd5b5061026c6004803603602081101561024057600080fd5b81019080803573ffffffffffffffffffffffffffffffffffffffff16906020019092919050505061053d565b6040518082815260200191505060405180910390f35b34801561028e57600080fd5b50610297610586565b6040518082815260200191505060405180910390f35b6102d9600480360360208110156102c357600080fd5b810190808035906020019092919050505061065e565b604051808215151515815260200191505060405180910390f35b3480156102ff57600080fd5b50610308610ada565b6040518082815260200191505060405180910390f35b34801561032a57600080fd5b50610333610bfb565b604051808273ffffffffffffffffffffffffffffffffffffffff1673ffffffffffffffffffffffffffffffffffffffff16815260200191505060405180910390f35b34801561038157600080fd5b5061038a610c20565b6040518082815260200191505060405180910390f35b6103a8610c30565b6040518082815260200191505060405180910390f35b6103c6610cb9565b6040518082815260200191505060405180910390f35b3480156103e857600080fd5b506103f1610dc7565b6040518082815260200191505060405180910390f35b60026020528060005260406000206000915090505481565b6000600154905090565b600060646001548161043757fe5b04905090565b60036020528060005260406000206000915054906101000a900460ff1681565b6000809054906101000a900473ffffffffffffffffffffffffffffffffffffffff1673ffffffffffffffffffffffffffffffffffffffff163373ffffffffffffffffffffffffffffffffffffffff161461051f576040517f08c379a00000000000000000000000000000000000000000000000000000000081526004018080602001828103825260198152602001807f6f6e6c792061636365737320666f7220746865206f776e65720000000000000081525060200191505060405180910390fd5b60003390508073ffffffffffffffffffffffffffffffffffffffff16ff5b6000600260008373ffffffffffffffffffffffffffffffffffffffff1673ffffffffffffffffffffffffffffffffffffffff168152602001908152602001600020549050919050565b600080600260003373ffffffffffffffffffffffffffffffffffffffff1673ffffffffffffffffffffffffffffffffffffffff1681526020019081526020016000205490506000600260003373ffffffffffffffffffffffffffffffffffffffff1673ffffffffffffffffffffffffffffffffffffffff168152602001908152602001600020819055503373ffffffffffffffffffffffffffffffffffffffff166108fc829081150290604051600060405180830381858888f19350505050158015610656573d6000803e3d6000fd5b508091505090565b6000600182148061066f5750600082145b6106e1576040517f08c379a000000000000000000000000000000000000000000000000000000000815260040180806020018281038252601e8152602001807f6865616473206172652031207c7c207461696c732077696c6c2062652030000081525060200191505060405180910390fd5b600260003373ffffffffffffffffffffffffffffffffffffffff1673ffffffffffffffffffffffffffffffffffffffff1681526020019081526020016000205434111580156107375750610733610c20565b3410155b801561074557506001543411155b61079a576040517f08c379a0000000000000000000000000000000000000000000000000000000008152600401808060200182810382526036815260200180610de06036913960400191505060405180910390fd5b60006107a4610dcd565b1480156107b15750600082145b806107cf575060016107c1610dcd565b1480156107ce5750600182145b5b156109585760023402600260003373ffffffffffffffffffffffffffffffffffffffff1673ffffffffffffffffffffffffffffffffffffffff16815260200190815260200160002060008282540192505081905550346001600082825403925050819055506001600360003373ffffffffffffffffffffffffffffffffffffffff1673ffffffffffffffffffffffffffffffffffffffff16815260200190815260200160002060006101000a81548160ff0219169083151502179055507f634dfc5513a3fb0834b62e3eaee1a846b12fee6f995847d0fce68ebf0914dcc233346001604051808473ffffffffffffffffffffffffffffffffffffffff1673ffffffffffffffffffffffffffffffffffffffff16815260200183815260200182151515158152602001935050505060405180910390a1600360003373ffffffffffffffffffffffffffffffffffffffff1673ffffffffffffffffffffffffffffffffffffffff16815260200190815260200160002060009054906101000a900460ff169050610ad5565b34600260003373ffffffffffffffffffffffffffffffffffffffff1673ffffffffffffffffffffffffffffffffffffffff16815260200190815260200160002060008282540392505081905550346001600082825401925050819055506000600360003373ffffffffffffffffffffffffffffffffffffffff1673ffffffffffffffffffffffffffffffffffffffff16815260200190815260200160002060006101000a81548160ff0219169083151502179055507f634dfc5513a3fb0834b62e3eaee1a846b12fee6f995847d0fce68ebf0914dcc233600080604051808473ffffffffffffffffffffffffffffffffffffffff1673ffffffffffffffffffffffffffffffffffffffff16815260200183815260200182151515158152602001935050505060405180910390a1600360003373ffffffffffffffffffffffffffffffffffffffff1673ffffffffffffffffffffffffffffffffffffffff16815260200190815260200160002060009054906101000a900460ff1690505b919050565b60008060009054906101000a900473ffffffffffffffffffffffffffffffffffffffff1673ffffffffffffffffffffffffffffffffffffffff163373ffffffffffffffffffffffffffffffffffffffff1614610b9e576040517f08c379a00000000000000000000000000000000000000000000000000000000081526004018080602001828103825260198152602001807f6f6e6c792061636365737320666f7220746865206f776e65720000000000000081525060200191505060405180910390fd5b6000600154905060006001819055503373ffffffffffffffffffffffffffffffffffffffff166108fc829081150290604051600060405180830381858888f19350505050158015610bf3573d6000803e3d6000fd5b508091505090565b6000809054906101000a900473ffffffffffffffffffffffffffffffffffffffff1681565b6000670de0b6b3a7640000905090565b600034600260003373ffffffffffffffffffffffffffffffffffffffff1673ffffffffffffffffffffffffffffffffffffffff168152602001908152602001600020600082825401925050819055507f4d6ce1e535dbade1c23defba91e23b8f791ce5edc0cc320257a2b364e4e38426346040518082815260200191505060405180910390a190565b60008060009054906101000a900473ffffffffffffffffffffffffffffffffffffffff1673ffffffffffffffffffffffffffffffffffffffff163373ffffffffffffffffffffffffffffffffffffffff1614610d7d576040517f08c379a00000000000000000000000000000000000000000000000000000000081526004018080602001828103825260198152602001807f6f6e6c792061636365737320666f7220746865206f776e65720000000000000081525060200191505060405180910390fd5b346001600082825401925050819055507f4d6ce1e535dbade1c23defba91e23b8f791ce5edc0cc320257a2b364e4e38426346040518082815260200191505060405180910390a190565b60015481565b600060024281610dd957fe5b0690509056fe73656e6465722063616e74206578636565642063757272656e742062616c616e636520616e64206e6565642070616c61636520626574a265627a7a72315820287db460deded9b2138f5a70cc452e7c73ed22b993ff6bc1d6b6fd6a22f62ceb64736f6c634300050c0032",
  "source": "pragma solidity 0.5.12;\r\n\r\nimport \"./Ownable.sol\";\r\ncontract CoinFlip is Ownable {\r\n\r\n  constructor() public payable{\r\n    owner = msg.sender;\r\n}\r\n\r\n  modifier costs(uint cost){\r\n        require(msg.value >= cost,\"Not enough ETH sent!\");\r\n        _;\r\n    }\r\n\r\nuint public balance;\r\n\r\nmapping(address => uint256) public userBalance;\r\nmapping(address => bool) public lastFlip;\r\n\r\n\r\n  event BettingResult(address caller, uint256 amount , bool won);\r\n  event Withdrawal (uint256 userBalance);\r\n  event Deposit (uint256 userBalance);\r\n\r\n\r\n\r\n    function random() private view returns (uint256) {\r\n    return now % 2;\r\n    }\r\n    function addBalance() public payable returns(uint256){\r\n    userBalance[msg.sender] += msg.value;\r\n    emit Deposit(msg.value);\r\n    }\r\n    function withdrawBalance() public returns(uint256) {\r\n    uint toTransfer = userBalance[msg.sender];\r\n    userBalance[msg.sender] = 0;\r\n    msg.sender.transfer(toTransfer);\r\n    return toTransfer;\r\n    }\r\n    function minBet() public pure returns(uint256) {\r\n    return 1 ether;\r\n    }\r\n\r\n    function maxBet() public view returns(uint256) {\r\n    return balance / 100;\r\n    }\r\n    function bet(uint256 betType ) public payable returns (bool){\r\n    require (betType == 1 || betType == 0, \"heads are 1 || tails will be 0\");\r\n    require (msg.value <= userBalance[msg.sender] && msg.value >=minBet() && msg.value <= balance, \"sender cant exceed current balance and need palace bet\");\r\n\r\n    if ((random() == 0 && betType == 0) || (random() == 1 && betType == 1)) {\r\n        userBalance[msg.sender] += (msg.value*2);\r\n        balance -= msg.value;\r\n        lastFlip[msg.sender] = true;\r\n        emit BettingResult(msg.sender,msg.value,true);\r\n        return lastFlip[msg.sender];\r\n      } else {\r\n        userBalance[msg.sender] -= msg.value;\r\n        balance +=msg.value;\r\n        lastFlip[msg.sender] = false;\r\n        emit BettingResult(msg.sender,0,false);\r\n        return lastFlip[msg.sender];\r\n      }\r\n    }\r\n    function getBalance()public view returns(uint256){\r\n    return balance;\r\n    }\r\n    function getUserBalance (address user1) public view returns (uint256){\r\n      return userBalance[user1];\r\n    }\r\n    function withdrawAll() public onlyOwner returns(uint256) {\r\n      uint toTransfer = balance;\r\n      balance = 0;\r\n      msg.sender.transfer(toTransfer);\r\n      return toTransfer;\r\n    }\r\n    function fund() public payable onlyOwner returns(uint256){\r\n      balance += msg.value;\r\n      emit Deposit(msg.value);\r\n    }\r\n    function close() public onlyOwner{\r\n      address payable reciever = msg.sender;\r\n      selfdestruct(reciever);\r\n    }\r\n}\r\n",
  "sourcePath": "C:/Users/gibbo/CoinFlip/CoinFlipProject/contracts/CoinFlip.sol",
  "compiler": {
    "name": "solc",
    "version": "0.5.12+commit.7709ece9.Emscripten.clang"
  },
  "schemaVersion": "3.0.16",
  "updatedAt": "2020-08-14T08:35:53.913Z",
  "devdoc": {
    "methods": {}
  },
  "userdoc": {
    "methods": {}
  }
}